{
  "contractName": "TrustFund",
  "abi": [
    {
      "inputs": [
        {
          "internalType": "address payable",
          "name": "_benefactor",
          "type": "address"
        },
        {
          "internalType": "address payable",
          "name": "_spender",
          "type": "address"
        }
      ],
      "stateMutability": "payable",
      "type": "constructor",
      "payable": true
    },
    {
      "anonymous": false,
      "inputs": [
        {
          "indexed": true,
          "internalType": "address",
          "name": "assetAddr",
          "type": "address"
        },
        {
          "indexed": true,
          "internalType": "string",
          "name": "assetType",
          "type": "string"
        },
        {
          "indexed": false,
          "internalType": "string",
          "name": "assetName",
          "type": "string"
        },
        {
          "indexed": false,
          "internalType": "uint256",
          "name": "id",
          "type": "uint256"
        },
        {
          "indexed": false,
          "internalType": "uint256",
          "name": "value",
          "type": "uint256"
        }
      ],
      "name": "AssetDeposited",
      "type": "event"
    },
    {
      "anonymous": false,
      "inputs": [
        {
          "indexed": true,
          "internalType": "address",
          "name": "",
          "type": "address"
        }
      ],
      "name": "BenefactorAndSpenderAddresses",
      "type": "event"
    },
    {
      "anonymous": false,
      "inputs": [
        {
          "indexed": true,
          "internalType": "uint256",
          "name": "",
          "type": "uint256"
        }
      ],
      "name": "LockDurationSet",
      "type": "event"
    },
    {
      "anonymous": false,
      "inputs": [
        {
          "indexed": true,
          "internalType": "address",
          "name": "",
          "type": "address"
        }
      ],
      "name": "SpenderAddressChanged",
      "type": "event"
    },
    {
      "inputs": [],
      "name": "lockDuration",
      "outputs": [
        {
          "internalType": "uint256",
          "name": "",
          "type": "uint256"
        }
      ],
      "stateMutability": "view",
      "type": "function",
      "constant": true
    },
    {
      "inputs": [],
      "name": "depositETH",
      "outputs": [
        {
          "internalType": "bool",
          "name": "r",
          "type": "bool"
        }
      ],
      "stateMutability": "payable",
      "type": "function",
      "payable": true
    },
    {
      "inputs": [
        {
          "internalType": "address",
          "name": "asset",
          "type": "address"
        },
        {
          "internalType": "uint256",
          "name": "value",
          "type": "uint256"
        },
        {
          "internalType": "string",
          "name": "assetName",
          "type": "string"
        }
      ],
      "name": "depositERC20Asset",
      "outputs": [
        {
          "internalType": "bool",
          "name": "r",
          "type": "bool"
        }
      ],
      "stateMutability": "payable",
      "type": "function",
      "payable": true
    },
    {
      "inputs": [
        {
          "internalType": "address",
          "name": "asset",
          "type": "address"
        },
        {
          "internalType": "uint256",
          "name": "assetId",
          "type": "uint256"
        }
      ],
      "name": "depositERC721Asset",
      "outputs": [
        {
          "internalType": "bool",
          "name": "r",
          "type": "bool"
        }
      ],
      "stateMutability": "payable",
      "type": "function",
      "payable": true
    },
    {
      "inputs": [
        {
          "internalType": "address",
          "name": "asset",
          "type": "address"
        },
        {
          "internalType": "uint256",
          "name": "id",
          "type": "uint256"
        },
        {
          "internalType": "uint256",
          "name": "value",
          "type": "uint256"
        },
        {
          "internalType": "bytes",
          "name": "data",
          "type": "bytes"
        }
      ],
      "name": "depositERC1155Asset",
      "outputs": [
        {
          "internalType": "bool",
          "name": "r",
          "type": "bool"
        }
      ],
      "stateMutability": "payable",
      "type": "function",
      "payable": true
    },
    {
      "inputs": [
        {
          "internalType": "address",
          "name": "addr",
          "type": "address"
        },
        {
          "internalType": "uint256",
          "name": "value",
          "type": "uint256"
        }
      ],
      "name": "withdrawAsset",
      "outputs": [
        {
          "internalType": "bool",
          "name": "p",
          "type": "bool"
        }
      ],
      "stateMutability": "payable",
      "type": "function",
      "payable": true
    },
    {
      "inputs": [
        {
          "internalType": "address",
          "name": "addr",
          "type": "address"
        },
        {
          "internalType": "uint256",
          "name": "value",
          "type": "uint256"
        },
        {
          "internalType": "uint256",
          "name": "id",
          "type": "uint256"
        }
      ],
      "name": "withdrawAsset",
      "outputs": [
        {
          "internalType": "bool",
          "name": "p",
          "type": "bool"
        }
      ],
      "stateMutability": "payable",
      "type": "function",
      "payable": true
    },
    {
      "inputs": [],
      "name": "getBenefactor",
      "outputs": [
        {
          "internalType": "address",
          "name": "b",
          "type": "address"
        }
      ],
      "stateMutability": "view",
      "type": "function",
      "constant": true
    },
    {
      "inputs": [],
      "name": "getSpender",
      "outputs": [
        {
          "internalType": "address",
          "name": "s",
          "type": "address"
        }
      ],
      "stateMutability": "view",
      "type": "function",
      "constant": true
    },
    {
      "inputs": [
        {
          "internalType": "address payable",
          "name": "s",
          "type": "address"
        }
      ],
      "name": "setSpender",
      "outputs": [],
      "stateMutability": "nonpayable",
      "type": "function"
    }
  ],
  "bytecode": "0x60806040526040516108fc3803806108fc83398101604081905261002291610132565b60003411610090576040517f08c379a000000000000000000000000000000000000000000000000000000000815260206004820152601460248201527f6465706f73697420696e6974616c2066756e6473000000000000000000000000604482015260640160405180910390fd5b60008054600160a060020a03808516600160a060020a03199283161790925560018054928416929091169190911790556100d16401000000006100d8810204565b50506101a5565b6100e6426301dfe200610165565b60028190556040517fe8a8961cffd8b96789b71b359799d4edbe8389d8982198811e6664a0fb460ff490600090a2565b8051600160a060020a038116811461012d57600080fd5b919050565b6000806040838503121561014557600080fd5b61014e83610116565b915061015c60208401610116565b90509250929050565b8082018082111561019f577f4e487b7100000000000000000000000000000000000000000000000000000000600052601160045260246000fd5b92915050565b610748806101b46000396000f3fe6080604052600436106100ae576000357c0100000000000000000000000000000000000000000000000000000000900480634443920911610076578063444392091461015a5780637a9717df1461017c578063b1dab9481461019a578063d74f8606146101b1578063f6326fb3146101c457600080fd5b806304554443146100b35780631cc98874146100dc578063288fa8a4146100ff578063334fc2891461011257806338e4f06414610144575b600080fd5b3480156100bf57600080fd5b506100c960025481565b6040519081526020015b60405180910390f35b6100ef6100ea366004610501565b6101cc565b60405190151581526020016100d3565b6100ef61010d366004610576565b610254565b34801561011e57600080fd5b50600154600160a060020a03165b604051600160a060020a0390911681526020016100d3565b6100ef610152366004610501565b506001919050565b34801561016657600080fd5b5061017a6101753660046105d2565b6102f0565b005b34801561018857600080fd5b50600054600160a060020a031661012c565b6100ef6101a83660046105f6565b50600192915050565b6100ef6101bf36600461062b565b61044b565b6100ef6104d8565b6040517f42842e0e00000000000000000000000000000000000000000000000000000000815233600482015230602482015260448101829052600090600160a060020a038416906342842e0e90606401600060405180830381600087803b15801561023657600080fd5b505af115801561024a573d6000803e3d6000fd5b5050505092915050565b6040517f23b872dd00000000000000000000000000000000000000000000000000000000815233600482015230602482015260448101849052600090600160a060020a038616906323b872dd906064016020604051808303816000875af11580156102c3573d6000803e3d6000fd5b505050506040513d601f19601f820116820180604052508101906102e79190610695565b95945050505050565b600054600160a060020a0316331461030757600080fd5b600160a060020a03811661037c576040517f08c379a000000000000000000000000000000000000000000000000000000000815260206004820152600f60248201527f696e76616c69642061646472657373000000000000000000000000000000000060448201526064015b60405180910390fd5b600054600160a060020a03908116908216036103f4576040517f08c379a000000000000000000000000000000000000000000000000000000000815260206004820152601c60248201527f62656e65666163746f722063616e6e6f74206265207370656e646572000000006044820152606401610373565b6001805473ffffffffffffffffffffffffffffffffffffffff1916600160a060020a0383169081179091556040517f15e45b303cd0d73f31b30eb738f24928683d770654d4a2bc92564f239c3452dc90600090a250565b6040517ff242432a000000000000000000000000000000000000000000000000000000008152600090600160a060020a0387169063f242432a9061049d90339030908a908a908a908a906004016106b7565b600060405180830381600087803b1580156104b757600080fd5b505af11580156104cb573d6000803e3d6000fd5b5050505095945050505050565b60008034116104e657600080fd5b90565b600160a060020a03811681146104fe57600080fd5b50565b6000806040838503121561051457600080fd5b823561051f816104e9565b946020939093013593505050565b60008083601f84011261053f57600080fd5b50813567ffffffffffffffff81111561055757600080fd5b60208301915083602082850101111561056f57600080fd5b9250929050565b6000806000806060858703121561058c57600080fd5b8435610597816104e9565b935060208501359250604085013567ffffffffffffffff8111156105ba57600080fd5b6105c68782880161052d565b95989497509550505050565b6000602082840312156105e457600080fd5b81356105ef816104e9565b9392505050565b60008060006060848603121561060b57600080fd5b8335610616816104e9565b95602085013595506040909401359392505050565b60008060008060006080868803121561064357600080fd5b853561064e816104e9565b94506020860135935060408601359250606086013567ffffffffffffffff81111561067857600080fd5b6106848882890161052d565b969995985093965092949392505050565b6000602082840312156106a757600080fd5b815180151581146105ef57600080fd5b6000600160a060020a03808916835280881660208401525085604083015284606083015260a060808301528260a0830152828460c0840137600060c0848401015260c0601f19601f850116830101905097965050505050505056fea264697066735822122099a3d4a7c31f416c5793b85d6adffc1fe56b0117cc167bcd1dc0607ab58a5b3e64736f6c63430008100033",
  "immutableReferences": {},
  "source": "// SPDX-License-Identifier: MIT\r\n\r\npragma solidity >=0.7.0 <0.9.0;\r\n\r\nimport \"@openzeppelin/contracts/interfaces/IERC20.sol\";\r\nimport \"@openzeppelin/contracts/interfaces/IERC721.sol\";\r\nimport \"@openzeppelin/contracts/interfaces/IERC1363.sol\";\r\nimport \"@openzeppelin/contracts/interfaces/IERC1155.sol\";\r\n\r\ncontract TrustFund {\r\n\r\n    address payable private benefactor;\r\n    address payable private spender;\r\n    uint256 public lockDuration;\r\n\r\n    IERC20 private ierc20;\r\n    IERC721 private ierc721;\r\n    IERC1155 private ierc1155;\r\n\r\n    event LockDurationSet(uint indexed);\r\n    event SpenderAddressChanged(address indexed);\r\n    event BenefactorAndSpenderAddresses(address indexed);\r\n    event AssetDeposited(\r\n        address indexed assetAddr,\r\n        string indexed assetType,\r\n        string assetName,\r\n        uint id,\r\n        uint value\r\n    );\r\n\r\n    struct Asset{\r\n        string assetName;\r\n        string assetType;\r\n        uint assetBalance;\r\n        uint assetId;\r\n        address assetAddr;\r\n    }\r\n\r\n    modifier onlyBenefactor() {\r\n        require(msg.sender == benefactor);\r\n        _;\r\n    }\r\n\r\n    constructor(address payable _benefactor, address payable _spender) payable {\r\n        require(msg.value > 0, \"deposit inital funds\");\r\n        benefactor = _benefactor;\r\n        spender = _spender;\r\n        setLockDuration();\r\n    \r\n    }\r\n\r\n    function setLockDuration() internal {\r\n       lockDuration = block.timestamp +  52 weeks; \r\n       emit LockDurationSet(lockDuration);\r\n    }\r\n\r\n    mapping(address => Asset) assets;\r\n\r\n    //mapping(string => mapping(address => uint)) assets;\r\n\r\n    function depositETH() external payable returns(bool r) {\r\n        require(msg.value > 0);\r\n\r\n        //emit AssetDeposited();\r\n    }\r\n\r\n    function depositERC20Asset(address asset, uint value, string calldata assetName) external payable returns(bool r) {\r\n              \r\n        r = IERC20(asset).transferFrom(msg.sender, address(this), value);\r\n\r\n        //emit AssetDeposited();\r\n\r\n    }\r\n\r\n    function depositERC721Asset(address asset, uint assetId) external payable returns(bool r) {\r\n        IERC721(asset).safeTransferFrom(msg.sender, address(this), assetId);\r\n\r\n        //emit AssetDeposited();\r\n    }\r\n\r\n    function depositERC1155Asset(address asset, uint256 id, uint256 value, bytes calldata data) external payable returns(bool r) {\r\n        IERC1155(asset).safeTransferFrom(msg.sender, address(this), id, value, data);\r\n\r\n        //emit AssetDeposited();\r\n    }\r\n\r\n    function withdrawAsset(address addr, uint value, uint id) external payable returns(bool p ) { p = true;}\r\n\r\n    function withdrawAsset(address addr, uint value) external payable returns(bool p ) { p = true;}\r\n\r\n    function getBenefactor() external view returns(address b){\r\n        b = benefactor;\r\n    }\r\n\r\n    function getSpender() external view returns(address s){\r\n        s = spender;\r\n    }\r\n\r\n    function setSpender(address payable s) external onlyBenefactor {\r\n        require(s != address(0), \"invalid address\");\r\n        require(s != benefactor, \"benefactor cannot be spender\");\r\n\r\n        spender = s;\r\n        emit SpenderAddressChanged(spender);\r\n    }\r\n    \r\n}",
  "sourcePath": "C:\\Users\\user\\Desktop\\vscode\\Trustfund\\contracts\\TrustFund.sol",
  "compiler": {
    "name": "solc",
    "version": "0.8.16+commit.07a7930e.Emscripten.clang"
  },
  "schemaVersion": "3.4.9",
  "updatedAt": "2022-09-20T08:58:40.048Z",
  "networkType": "ethereum",
  "devdoc": {
    "kind": "dev",
    "methods": {},
    "version": 1
  },
  "userdoc": {
    "kind": "user",
    "methods": {},
    "version": 1
  }
}