{
  "contractName": "TrustFund",
  "abi": [
    {
      "inputs": [
        {
          "internalType": "address payable",
          "name": "_benefactor",
          "type": "address"
        },
        {
          "internalType": "address payable",
          "name": "_spender",
          "type": "address"
        }
      ],
      "stateMutability": "payable",
      "type": "constructor"
    },
    {
      "inputs": [
        {
          "internalType": "string",
          "name": "assetName",
          "type": "string"
        }
      ],
      "name": "InsufficentCharactersForAssetName",
      "type": "error"
    },
    {
      "anonymous": false,
      "inputs": [
        {
          "indexed": false,
          "internalType": "string",
          "name": "assetName",
          "type": "string"
        },
        {
          "indexed": true,
          "internalType": "string",
          "name": "assetType",
          "type": "string"
        },
        {
          "indexed": true,
          "internalType": "address",
          "name": "assetAddr",
          "type": "address"
        }
      ],
      "name": "AssetBalanceIsZero",
      "type": "event"
    },
    {
      "anonymous": false,
      "inputs": [
        {
          "indexed": false,
          "internalType": "string",
          "name": "assetName",
          "type": "string"
        },
        {
          "indexed": true,
          "internalType": "string",
          "name": "assetType",
          "type": "string"
        },
        {
          "indexed": true,
          "internalType": "uint256",
          "name": "balance",
          "type": "uint256"
        },
        {
          "indexed": true,
          "internalType": "address",
          "name": "assetAddr",
          "type": "address"
        }
      ],
      "name": "AssetDeposited",
      "type": "event"
    },
    {
      "anonymous": false,
      "inputs": [
        {
          "indexed": false,
          "internalType": "string",
          "name": "assetName",
          "type": "string"
        },
        {
          "indexed": true,
          "internalType": "string",
          "name": "assetType",
          "type": "string"
        },
        {
          "indexed": true,
          "internalType": "uint256",
          "name": "balance",
          "type": "uint256"
        },
        {
          "indexed": true,
          "internalType": "address",
          "name": "assetAddr",
          "type": "address"
        }
      ],
      "name": "AssetWithdrawn",
      "type": "event"
    },
    {
      "anonymous": false,
      "inputs": [
        {
          "indexed": true,
          "internalType": "address",
          "name": "",
          "type": "address"
        }
      ],
      "name": "BenefactorAndSpenderAddresses",
      "type": "event"
    },
    {
      "anonymous": false,
      "inputs": [
        {
          "indexed": true,
          "internalType": "uint256",
          "name": "",
          "type": "uint256"
        }
      ],
      "name": "LockDurationSet",
      "type": "event"
    },
    {
      "anonymous": false,
      "inputs": [
        {
          "indexed": true,
          "internalType": "address",
          "name": "",
          "type": "address"
        }
      ],
      "name": "SpenderAddressChanged",
      "type": "event"
    },
    {
      "inputs": [],
      "name": "assetCount",
      "outputs": [
        {
          "internalType": "uint256",
          "name": "",
          "type": "uint256"
        }
      ],
      "stateMutability": "view",
      "type": "function"
    },
    {
      "inputs": [],
      "name": "lockDuration",
      "outputs": [
        {
          "internalType": "uint256",
          "name": "",
          "type": "uint256"
        }
      ],
      "stateMutability": "view",
      "type": "function"
    },
    {
      "inputs": [],
      "name": "depositETH",
      "outputs": [
        {
          "internalType": "bool",
          "name": "r",
          "type": "bool"
        }
      ],
      "stateMutability": "payable",
      "type": "function"
    },
    {
      "inputs": [
        {
          "internalType": "address",
          "name": "_asset",
          "type": "address"
        },
        {
          "internalType": "uint256",
          "name": "_value",
          "type": "uint256"
        },
        {
          "internalType": "string",
          "name": "_assetName",
          "type": "string"
        }
      ],
      "name": "depositERC20Asset",
      "outputs": [
        {
          "internalType": "bool",
          "name": "r",
          "type": "bool"
        }
      ],
      "stateMutability": "payable",
      "type": "function"
    },
    {
      "inputs": [
        {
          "internalType": "address",
          "name": "_asset",
          "type": "address"
        },
        {
          "internalType": "uint256",
          "name": "assetId",
          "type": "uint256"
        },
        {
          "internalType": "string",
          "name": "_assetName",
          "type": "string"
        }
      ],
      "name": "depositERC721Asset",
      "outputs": [],
      "stateMutability": "payable",
      "type": "function"
    },
    {
      "inputs": [
        {
          "internalType": "address",
          "name": "asset",
          "type": "address"
        },
        {
          "internalType": "uint256",
          "name": "id",
          "type": "uint256"
        },
        {
          "internalType": "uint256",
          "name": "value",
          "type": "uint256"
        },
        {
          "internalType": "bytes",
          "name": "data",
          "type": "bytes"
        }
      ],
      "name": "depositERC1155Asset",
      "outputs": [
        {
          "internalType": "bool",
          "name": "r",
          "type": "bool"
        }
      ],
      "stateMutability": "payable",
      "type": "function"
    },
    {
      "inputs": [
        {
          "internalType": "address",
          "name": "assetAddr",
          "type": "address"
        }
      ],
      "name": "checkBalance",
      "outputs": [
        {
          "internalType": "uint256",
          "name": "s",
          "type": "uint256"
        }
      ],
      "stateMutability": "payable",
      "type": "function"
    },
    {
      "inputs": [
        {
          "internalType": "address",
          "name": "assetAddr",
          "type": "address"
        },
        {
          "internalType": "uint256",
          "name": "value",
          "type": "uint256"
        }
      ],
      "name": "withdrawERC20Asset",
      "outputs": [
        {
          "internalType": "bool",
          "name": "p",
          "type": "bool"
        }
      ],
      "stateMutability": "payable",
      "type": "function"
    },
    {
      "inputs": [
        {
          "internalType": "address",
          "name": "addr",
          "type": "address"
        },
        {
          "internalType": "uint256",
          "name": "id",
          "type": "uint256"
        }
      ],
      "name": "withdrawERC721Asset",
      "outputs": [
        {
          "internalType": "bool",
          "name": "p",
          "type": "bool"
        }
      ],
      "stateMutability": "payable",
      "type": "function"
    },
    {
      "inputs": [
        {
          "internalType": "address",
          "name": "addr",
          "type": "address"
        },
        {
          "internalType": "uint256",
          "name": "value",
          "type": "uint256"
        },
        {
          "internalType": "uint256",
          "name": "id",
          "type": "uint256"
        }
      ],
      "name": "withdrawERC1155Asset",
      "outputs": [
        {
          "internalType": "bool",
          "name": "p",
          "type": "bool"
        }
      ],
      "stateMutability": "payable",
      "type": "function"
    },
    {
      "inputs": [],
      "name": "withdrawAllERC20Assets",
      "outputs": [],
      "stateMutability": "payable",
      "type": "function"
    },
    {
      "inputs": [],
      "name": "withdrawAllERC721Assets",
      "outputs": [],
      "stateMutability": "payable",
      "type": "function"
    },
    {
      "inputs": [],
      "name": "withdrawAllERC1155Assets",
      "outputs": [],
      "stateMutability": "payable",
      "type": "function"
    },
    {
      "inputs": [],
      "name": "withdrawAllAssets",
      "outputs": [],
      "stateMutability": "payable",
      "type": "function"
    },
    {
      "inputs": [
        {
          "internalType": "address",
          "name": "addr",
          "type": "address"
        }
      ],
      "name": "getAssetInformation",
      "outputs": [
        {
          "internalType": "string",
          "name": "s",
          "type": "string"
        },
        {
          "internalType": "string",
          "name": "t",
          "type": "string"
        },
        {
          "internalType": "uint256",
          "name": "b",
          "type": "uint256"
        },
        {
          "internalType": "address",
          "name": "add",
          "type": "address"
        }
      ],
      "stateMutability": "view",
      "type": "function"
    },
    {
      "inputs": [],
      "name": "getAssetAddresses",
      "outputs": [
        {
          "internalType": "address[]",
          "name": "",
          "type": "address[]"
        }
      ],
      "stateMutability": "payable",
      "type": "function"
    },
    {
      "inputs": [
        {
          "internalType": "address",
          "name": "addr",
          "type": "address"
        }
      ],
      "name": "checkAssetIsInContract",
      "outputs": [
        {
          "internalType": "bool",
          "name": "",
          "type": "bool"
        }
      ],
      "stateMutability": "view",
      "type": "function"
    },
    {
      "inputs": [],
      "name": "getNumberOfAssets",
      "outputs": [
        {
          "internalType": "uint256",
          "name": "n",
          "type": "uint256"
        }
      ],
      "stateMutability": "view",
      "type": "function"
    },
    {
      "inputs": [],
      "name": "getBenefactor",
      "outputs": [
        {
          "internalType": "address",
          "name": "b",
          "type": "address"
        }
      ],
      "stateMutability": "view",
      "type": "function"
    },
    {
      "inputs": [],
      "name": "getSpender",
      "outputs": [
        {
          "internalType": "address",
          "name": "s",
          "type": "address"
        }
      ],
      "stateMutability": "view",
      "type": "function"
    },
    {
      "inputs": [
        {
          "internalType": "address payable",
          "name": "s",
          "type": "address"
        }
      ],
      "name": "setSpender",
      "outputs": [],
      "stateMutability": "nonpayable",
      "type": "function"
    }
  ],
  "bytecode": "0x60806040526040516200200b3803806200200b833981016040819052620000269162000154565b6000341162000095576040517f08c379a000000000000000000000000000000000000000000000000000000000815260206004820152601460248201527f6465706f73697420696e6974616c2066756e6473000000000000000000000000604482015260640160405180910390fd5b60038054906000620000a783620001bb565b909155505060008054600160a060020a03808516600160a060020a0319928316179092556001805492841692909116919091179055620000ef640100000000620000f7810204565b5050620001f3565b62000107426301dfe200620001d7565b60028190556040517fe8a8961cffd8b96789b71b359799d4edbe8389d8982198811e6664a0fb460ff490600090a2565b8051600160a060020a03811681146200014f57600080fd5b919050565b600080604083850312156200016857600080fd5b620001738362000137565b9150620001836020840162000137565b90509250929050565b7f4e487b7100000000000000000000000000000000000000000000000000000000600052601160045260246000fd5b600060018201620001d057620001d06200018c565b5060010190565b80820180821115620001ed57620001ed6200018c565b92915050565b611e0880620002036000396000f3fe608060405260043610610147576000357c01000000000000000000000000000000000000000000000000000000009004806387685fb9116100c8578063d74f86061161008c578063d74f8606146102bf578063e269053a146102d2578063eafe7a74146102e7578063f6326fb3146102fd578063f782114414610305578063fdcc60b81461017557600080fd5b806387685fb9146102385780638894949d1461024d578063b50b931a14610260578063b68f12a214610273578063c939205d146102ac57600080fd5b8063334fc2891161010f578063334fc289146101a257806344439209146101d45780635f515226146101f45780636403a8b9146102075780637a9717df1461021a57600080fd5b8063045544431461014c57806305525ffb1461017557806316a2f0f9146101755780632231466914610175578063288fa8a41461017f575b600080fd5b34801561015857600080fd5b5061016260025481565b6040519081526020015b60405180910390f35b61017d610335565b005b61019261018d366004611657565b610363565b604051901515815260200161016c565b3480156101ae57600080fd5b50600154600160a060020a03165b604051600160a060020a03909116815260200161016c565b3480156101e057600080fd5b5061017d6101ef3660046116b3565b6106f8565b6101626102023660046116b3565b610813565b6101926102153660046116d7565b610a45565b34801561022657600080fd5b50600054600160a060020a03166101bc565b610240610e3a565b60405161016c9190611703565b61019261025b366004611750565b610f07565b61019261026e3660046116d7565b610f3e565b34801561027f57600080fd5b5061019261028e3660046116b3565b600160a060020a031660009081526008602052604090205460ff1690565b61017d6102ba366004611657565b610f74565b6101926102cd366004611785565b6112ac565b3480156102de57600080fd5b50600954610162565b3480156102f357600080fd5b5061016260035481565b610192611339565b34801561031157600080fd5b506103256103203660046116b3565b61134a565b60405161016c9493929190611835565b600054600160a060020a03163314806103585750600154600160a060020a031633145b61036157600080fd5b565b60008084116103bc5760405160e560020a62461bcd02815260206004820152601660248201527f696e737566666963656e742076616c75652073656e740000000000000000000060448201526064015b60405180910390fd5b600060038310156103fd5783836040517fe09ab6110000000000000000000000000000000000000000000000000000000081526004016103b39291906118a4565b600160a060020a03861660009081526008602052604090205460ff166104855750600160a060020a0385166000818152600860205260408120805460ff191660019081179091556009805491820181559091527f6e1540171b6c0c960b71a7020d9f60077f6af931a8bbf590da0223dacf75c7af018054600160a060020a0319169091179055835b600160a060020a03861660009081526008602052604090205460ff16156104d057600160a060020a0386166000908152600760205260409020600201546104cd9086906118d9565b90505b6040805160c06020601f8701819004028201810190925260a08101858152606092829190889088908190850183828082843760009201829052509385525050604080518082018252600581527f65726332300000000000000000000000000000000000000000000000000000006020828101919091528086019190915281850188905260608501879052600160a060020a038d166080909501859052938352600790935250208151819061058490826119a8565b506020820151600182019061059990826119a8565b5060408201516002820155606082015180516105bf916003840191602090910190611556565b506080919091015160049182018054600160a060020a031916600160a060020a039283161790556040517f23b872dd0000000000000000000000000000000000000000000000000000000081523392810192909252306024830152604482018890528816906323b872dd906064016020604051808303816000875af115801561064c573d6000803e3d6000fd5b505050506040513d601f19601f820116820180604052508101906106709190611a64565b925086600160a060020a0316826040516106ad907f6572633230000000000000000000000000000000000000000000000000000000815260050190565b60405180910390207f6096aca84fb79f2ae541fa90028b19d9238a3602314922869291368b51d1a27688886040516106e69291906118a4565b60405180910390a45050949350505050565b600054600160a060020a0316331461070f57600080fd5b600160a060020a0381166107685760405160e560020a62461bcd02815260206004820152600f60248201527f696e76616c69642061646472657373000000000000000000000000000000000060448201526064016103b3565b600054600160a060020a03908116908216036107c95760405160e560020a62461bcd02815260206004820152601c60248201527f62656e65666163746f722063616e6e6f74206265207370656e6465720000000060448201526064016103b3565b60018054600160a060020a031916600160a060020a0383169081179091556040517f15e45b303cd0d73f31b30eb738f24928683d770654d4a2bc92564f239c3452dc90600090a250565b600160a060020a03811660009081526008602052604081205460ff1661087e5760405160e560020a62461bcd02815260206004820152600f60248201527f6173736574206e6f7420666f756e64000000000000000000000000000000000060448201526064016103b3565b600160a060020a038216600090815260076020526040808220815160a081019092528054829082906108af9061190b565b80601f01602080910402602001604051908101604052809291908181526020018280546108db9061190b565b80156109285780601f106108fd57610100808354040283529160200191610928565b820191906000526020600020905b81548152906001019060200180831161090b57829003601f168201915b505050505081526020016001820180546109419061190b565b80601f016020809104026020016040519081016040528092919081815260200182805461096d9061190b565b80156109ba5780601f1061098f576101008083540402835291602001916109ba565b820191906000526020600020905b81548152906001019060200180831161099d57829003601f168201915b505050505081526020016002820154815260200160038201805480602002602001604051908101604052809291908181526020018280548015610a1c57602002820191906000526020600020905b815481526020019060010190808311610a08575b505050918352505060049190910154600160a060020a0316602090910152604001519392505050565b60008054600160a060020a0316331480610a695750600154600160a060020a031633145b610a7257600080fd5b600160a060020a03831660009081526007602052604081206002810154909190841115610ae45760405160e560020a62461bcd02815260206004820152601160248201527f696e737566666963656e742066756e647300000000000000000000000000000060448201526064016103b3565b600160a060020a03851660009081526008602052604090205460ff16610b4f5760405160e560020a62461bcd02815260206004820152600f60248201527f6173736574206e6f7420666f756e64000000000000000000000000000000000060448201526064016103b3565b60008411610ba25760405160e560020a62461bcd02815260206004820152601660248201527f696e737566666963656e742076616c75652073656e740000000000000000000060448201526064016103b3565b83826002016000828254610bb69190611a86565b90915550505060028101546000819003610d445760005b600954811015610cd25785600160a060020a031660098281548110610bf457610bf4611a99565b600091825260209091200154600160a060020a031603610cc05760098054610c1e90600190611a86565b81548110610c2e57610c2e611a99565b60009182526020909120015460098054600160a060020a039092169183908110610c5a57610c5a611a99565b9060005260206000200160006101000a815481600160a060020a030219169083600160a060020a031602179055506009805480610c9957610c99611ab2565b60008281526020902081016000199081018054600160a060020a0319169055019055610cd2565b80610cca81611acb565b915050610bcd565b50600160a060020a03851660008181526008602052604090819020805460ff1916905551610d04906001850190611ae4565b604051908190038120907fd840e15f93f7ebf353c8818b19a00fe5c8a8a3a58e2cd185f0730931965b363990610d3b908690611b5a565b60405180910390a35b6040517fa9059cbb00000000000000000000000000000000000000000000000000000000815233600482015260248101859052600160a060020a0386169063a9059cbb906044016020604051808303816000875af1158015610daa573d6000803e3d6000fd5b505050506040513d601f19601f82011682018060405250810190610dce9190611a64565b6004830154604051919450600160a060020a0316908290610df0908590611ae4565b60405180910390207fe4fe14bf669a3fc2ad73d31b797146d50cf69d2f5e61a827afc3cc48bed07bc085600101604051610e2a9190611b5a565b60405180910390a4505092915050565b60095460609060009067ffffffffffffffff811115610e5b57610e5b6118f2565b604051908082528060200260200182016040528015610e84578160200160208202803683370190505b50905060005b600954811015610f015760098181548110610ea757610ea7611a99565b9060005260206000200160009054906101000a9004600160a060020a0316828281518110610ed757610ed7611a99565b600160a060020a039092166020928302919091019091015280610ef981611acb565b915050610e8a565b50919050565b60008054600160a060020a0316331480610f2b5750600154600160a060020a031633145b610f3457600080fd5b5060019392505050565b60008054600160a060020a0316331480610f625750600154600160a060020a031633145b610f6b57600080fd5b50600192915050565b600160a060020a03841660009081526007602052604090206003821015610fcb5782826040517fe09ab6110000000000000000000000000000000000000000000000000000000081526004016103b39291906118a4565b600160a060020a03851660009081526008602052604090205460ff1661115657600160a060020a0385166000818152600860205260408120805460ff191660019081179091556009805491820181559091527f6e1540171b6c0c960b71a7020d9f60077f6af931a8bbf590da0223dacf75c7af018054600160a060020a03191690911790558061105c838583611be4565b5060408051808201909152600681527f6572633732310000000000000000000000000000000000000000000000000000602082015260018201906110a090826119a8565b506000600282018190556003820180546001810182559082526020808320909101869055600483018054600160a060020a031916600160a060020a038916908117909155825260079052604090208190806110fb8382611ca2565b5060018181019061110e90840182611ca2565b5060028201548160020155600382018160030190805461112f9291906115a1565b5060049182015491018054600160a060020a031916600160a060020a039092169190911790555b600160a060020a03851660009081526008602052604090205460ff16156111aa5750600160a060020a0384166000908152600760209081526040822060038101805460018101825590845291909220018490555b6040517f42842e0e00000000000000000000000000000000000000000000000000000000815233600482015230602482015260448101859052600160a060020a038616906342842e0e90606401600060405180830381600087803b15801561121157600080fd5b505af1158015611225573d6000803e3d6000fd5b5050505084600160a060020a031684604051611264907f6572633732310000000000000000000000000000000000000000000000000000815260060190565b60405180910390207f6096aca84fb79f2ae541fa90028b19d9238a3602314922869291368b51d1a276868660405161129d9291906118a4565b60405180910390a45050505050565b6040517ff242432a000000000000000000000000000000000000000000000000000000008152600090600160a060020a0387169063f242432a906112fe90339030908a908a908a908a90600401611d74565b600060405180830381600087803b15801561131857600080fd5b505af115801561132c573d6000803e3d6000fd5b5050505095945050505050565b600080341161134757600080fd5b90565b600160a060020a0381166000908152600860205260408120546060918291819060ff1661137957611379611db9565b600160a060020a038516600090815260076020526040808220815160a081019092528054829082906113aa9061190b565b80601f01602080910402602001604051908101604052809291908181526020018280546113d69061190b565b80156114235780601f106113f857610100808354040283529160200191611423565b820191906000526020600020905b81548152906001019060200180831161140657829003601f168201915b5050505050815260200160018201805461143c9061190b565b80601f01602080910402602001604051908101604052809291908181526020018280546114689061190b565b80156114b55780601f1061148a576101008083540402835291602001916114b5565b820191906000526020600020905b81548152906001019060200180831161149857829003601f168201915b50505050508152602001600282015481526020016003820180548060200260200160405190810160405280929190818152602001828054801561151757602002820191906000526020600020905b815481526020019060010190808311611503575b505050918352505060049190910154600160a060020a031660209182015281519082015160408301516080909301519199909850919650945092505050565b828054828255906000526020600020908101928215611591579160200282015b82811115611591578251825591602001919060010190611576565b5061159d9291506115e1565b5090565b8280548282559060005260206000209081019282156115915760005260206000209182015b828111156115915782548255916001019190600101906115c6565b5b8082111561159d57600081556001016115e2565b600160a060020a038116811461160b57600080fd5b50565b60008083601f84011261162057600080fd5b50813567ffffffffffffffff81111561163857600080fd5b60208301915083602082850101111561165057600080fd5b9250929050565b6000806000806060858703121561166d57600080fd5b8435611678816115f6565b935060208501359250604085013567ffffffffffffffff81111561169b57600080fd5b6116a78782880161160e565b95989497509550505050565b6000602082840312156116c557600080fd5b81356116d0816115f6565b9392505050565b600080604083850312156116ea57600080fd5b82356116f5816115f6565b946020939093013593505050565b6020808252825182820181905260009190848201906040850190845b81811015611744578351600160a060020a03168352928401929184019160010161171f565b50909695505050505050565b60008060006060848603121561176557600080fd5b8335611770816115f6565b95602085013595506040909401359392505050565b60008060008060006080868803121561179d57600080fd5b85356117a8816115f6565b94506020860135935060408601359250606086013567ffffffffffffffff8111156117d257600080fd5b6117de8882890161160e565b969995985093965092949392505050565b6000815180845260005b81811015611815576020818501810151868301820152016117f9565b506000602082860101526020601f19601f83011685010191505092915050565b60808152600061184860808301876117ef565b828103602084015261185a81876117ef565b915050836040830152600160a060020a038316606083015295945050505050565b81835281816020850137506000828201602090810191909152601f909101601f19169091010190565b6020815260006118b860208301848661187b565b949350505050565b60e060020a634e487b7102600052601160045260246000fd5b808201808211156118ec576118ec6118c0565b92915050565b60e060020a634e487b7102600052604160045260246000fd5b60028104600182168061191f57607f821691505b602082108103610f015760e060020a634e487b7102600052602260045260246000fd5b601f82111561198c576000818152602081206020601f860104810160208610156119695750805b6020601f860104820191505b8181101561198857828155600101611975565b5050505b505050565b6002808302600893909302900a6000190419161790565b815167ffffffffffffffff8111156119c2576119c26118f2565b6119d6816119d0845461190b565b84611942565b602080601f831160018114611a0557600084156119f35750858301515b6119fd8582611991565b865550611988565b600085815260208120601f198616915b82811015611a3457888601518255948401946001909101908401611a15565b5085821015611a5457878501516008601f88160260020a60001904191681555b5050505050600202600101905550565b600060208284031215611a7657600080fd5b815180151581146116d057600080fd5b818103818111156118ec576118ec6118c0565b60e060020a634e487b7102600052603260045260246000fd5b60e060020a634e487b7102600052603160045260246000fd5b600060018201611add57611add6118c0565b5060010190565b6000808354611af28161190b565b60018281168015611b0a5760018114611b1f57611b4e565b60ff1984168752821515830287019450611b4e565b8760005260208060002060005b85811015611b455781548a820152908401908201611b2c565b50505082870194505b50929695505050505050565b6000602080835260008454611b6e8161190b565b80848701526040600180841660008114611b8f5760018114611ba857611bd6565b60ff198516898401528315158702890183019550611bd6565b896000528660002060005b85811015611bce5781548b8201860152908301908801611bb3565b8a0184019650505b509398975050505050505050565b67ffffffffffffffff831115611bfc57611bfc6118f2565b611c1083611c0a835461190b565b83611942565b6000601f841160018114611c3e5760008515611c2c5750838201355b611c368682611991565b845550611c9b565b600083815260209020601f19861690835b82811015611c6f5786850135825560209485019460019092019101611c4f565b5086821015611c8f57858401356008601f89160260020a60001904191681555b50506001600286020183555b5050505050565b818103611cad575050565b611cb7825461190b565b67ffffffffffffffff811115611ccf57611ccf6118f2565b611cdd816119d0845461190b565b6000601f821160018114611d0b5760008315611cf95750848201545b611d038482611991565b855550611c9b565b600085815260209020601f19841690600086815260209020845b83811015611d455782860154825560019586019590910190602001611d25565b5085831015611a5457818501546008601f88160260020a60001904191681555050505050600202600101905550565b6000600160a060020a03808916835280881660208401525085604083015284606083015260a06080830152611dad60a08301848661187b565b98975050505050505050565b60e060020a634e487b7102600052600160045260246000fdfea264697066735822122056b8bdbaf7b920d6afc5de04ae8bc59986dcb2ac8296f1bb5e163ccfccc86fdd64736f6c63430008100033",
  "immutableReferences": {},
  "source": "// SPDX-License-Identifier: MIT\r\n\r\npragma solidity >=0.7.0 <0.9.0;\r\n\r\nimport \"@openzeppelin/contracts/interfaces/IERC20.sol\";\r\nimport \"@openzeppelin/contracts/interfaces/IERC721.sol\";\r\nimport \"@openzeppelin/contracts/interfaces/IERC1363.sol\";\r\nimport \"@openzeppelin/contracts/interfaces/IERC1155.sol\";\r\n\r\ncontract TrustFund {\r\n\r\n    address payable private benefactor;\r\n    address payable private spender;\r\n    uint256 public lockDuration;\r\n    uint256 public assetCount;\r\n\r\n    IERC20 private ierc20;\r\n    IERC721 private ierc721;\r\n    IERC1155 private ierc1155;\r\n\r\n    error InsufficentCharactersForAssetName(string assetName);\r\n\r\n    event LockDurationSet(uint indexed);\r\n    event SpenderAddressChanged(address indexed);\r\n    event BenefactorAndSpenderAddresses(address indexed);\r\n    event AssetDeposited(\r\n        string assetName,\r\n        string indexed assetType,\r\n        uint indexed balance,\r\n        address indexed assetAddr\r\n    );\r\n\r\n    event AssetWithdrawn(\r\n        string assetName,\r\n        string indexed assetType,\r\n        uint indexed balance,\r\n        address indexed assetAddr\r\n    );\r\n\r\n    event AssetBalanceIsZero(\r\n        string assetName,\r\n        string indexed assetType,\r\n        address indexed assetAddr\r\n    );\r\n\r\n    // struct Asset{\r\n    //     string assetName;\r\n    //     string assetType;\r\n    //     uint assetBalance;\r\n    //     address assetAddr;\r\n    // }\r\n\r\n    enum AssetTypes{\r\n        ERC20,\r\n        ERC721,\r\n        ERC1155\r\n    }\r\n\r\n    modifier onlyBenefactor() {\r\n        require(msg.sender == benefactor);\r\n        _;\r\n    }\r\n\r\n    modifier onlyBenefactorOrSpender() {\r\n        require(msg.sender == benefactor || msg.sender == spender);\r\n        _;\r\n    }\r\n\r\n    constructor(address payable _benefactor, address payable _spender) payable {\r\n        require(msg.value > 0, \"deposit inital funds\");\r\n        assetCount++;\r\n\r\n        benefactor = _benefactor;\r\n        spender = _spender;\r\n        setLockDuration();\r\n    \r\n    }\r\n\r\n    function setLockDuration() internal {\r\n       lockDuration = block.timestamp +  52 weeks; \r\n       emit LockDurationSet(lockDuration);\r\n    }\r\n\r\n    function depositETH() external payable returns(bool r) {\r\n        require(msg.value > 0);\r\n\r\n        //emit AssetDeposited();\r\n    }\r\n\r\n    function depositERC20Asset(address _asset, uint _value, string calldata _assetName) external payable returns(bool r) {\r\n        require(_value > 0, \"insufficent value sent\");\r\n        uint balance;\r\n\r\n\r\n        if(bytes(_assetName).length < 3){\r\n            revert InsufficentCharactersForAssetName(_assetName); \r\n        }\r\n\r\n        if(!isAsset[_asset]){\r\n            isAsset[_asset] = true;\r\n            allAssets.push(_asset);\r\n            balance = _value;\r\n        } \r\n\r\n        if(isAsset[_asset]){\r\n            balance = assets[_asset].assetBalance + _value;\r\n        }\r\n        uint[] memory a;\r\n\r\n        assets[_asset] = Asset(_assetName, \"erc20\", balance, a, _asset);\r\n\r\n        r = IERC20(_asset).transferFrom(msg.sender, address(this), _value);\r\n\r\n        emit AssetDeposited(_assetName,\"erc20\", balance, _asset);\r\n\r\n    }\r\n    mapping(address => Asset) assets;\r\n    mapping(address => bool) isAsset;\r\n    address[] allAssets;\r\n\r\n        struct Asset{\r\n        string assetName;\r\n        string assetType;\r\n        uint assetBalance;\r\n        uint[] assetIds;\r\n        address assetAddr;\r\n    }\r\n\r\n    function depositERC721Asset(address _asset, uint assetId, string calldata _assetName) external payable {\r\n        Asset storage asset = assets[_asset];\r\n\r\n        if(bytes(_assetName).length < 3){\r\n            revert InsufficentCharactersForAssetName(_assetName); \r\n        }\r\n\r\n        if(!isAsset[_asset]){\r\n            isAsset[_asset] = true;\r\n            allAssets.push(_asset);\r\n            asset.assetName = _assetName;\r\n            asset.assetType = \"erc721\";\r\n            asset.assetBalance = 0;\r\n            asset.assetIds.push(assetId);\r\n            asset.assetAddr = _asset;\r\n\r\n            assets[_asset] = asset;\r\n\r\n        } \r\n\r\n        if(isAsset[_asset]){\r\n            asset = assets[_asset];\r\n            asset.assetIds.push(assetId);\r\n\r\n        }\r\n\r\n        //assets[_asset] = Asset(_assetName, \"erc721\", 0, a,  _asset);\r\n\r\n        IERC721(_asset).safeTransferFrom(msg.sender, address(this), assetId);\r\n\r\n        emit AssetDeposited(_assetName,\"erc721\", assetId, _asset);\r\n\r\n    }\r\n\r\n    function depositERC1155Asset(address asset, uint256 id, uint256 value, bytes calldata data) external payable returns(bool r) {\r\n        IERC1155(asset).safeTransferFrom(msg.sender, address(this), id, value, data);\r\n\r\n        //emit AssetDeposited();\r\n    }\r\n\r\n    function checkBalance(address assetAddr) external payable returns(uint s){\r\n        require(isAsset[assetAddr], \"asset not found\");\r\n        Asset memory a = assets[assetAddr];\r\n        s = a.assetBalance;\r\n    }\r\n\r\n    function withdrawERC20Asset(address assetAddr, uint value) external payable onlyBenefactorOrSpender returns(bool p ) { \r\n        Asset storage asset = assets[assetAddr];\r\n        uint balance;\r\n        require(asset.assetBalance >= value, \"insufficent funds\");\r\n        require(isAsset[assetAddr], \"asset not found\");\r\n        require(value > 0, \"insufficent value sent\");\r\n\r\n        asset.assetBalance -= value;\r\n        balance = asset.assetBalance;\r\n        if(balance == 0){\r\n            for(uint i = 0; i < allAssets.length; i++){\r\n                if(allAssets[i] == assetAddr){\r\n                    allAssets[i] = allAssets[allAssets.length - 1];\r\n                    allAssets.pop();\r\n                    //delete allAssets[i];\r\n                    break;\r\n                }\r\n            }\r\n            \r\n            isAsset[assetAddr] = false;\r\n            emit AssetBalanceIsZero(asset.assetName, asset.assetType, assetAddr);\r\n        }    \r\n\r\n        p = IERC20(assetAddr).transfer(msg.sender, value);\r\n\r\n        emit AssetWithdrawn(asset.assetType, asset.assetName, balance, asset.assetAddr);\r\n    }\r\n\r\n    function withdrawERC721Asset(address addr, uint id) external payable onlyBenefactorOrSpender returns(bool p ) { p = true;}\r\n\r\n    function withdrawERC1155Asset(address addr, uint value, uint id) external payable onlyBenefactorOrSpender returns(bool p ) { p = true;}\r\n\r\n    function withdrawAllERC20Assets() external payable onlyBenefactorOrSpender {}\r\n\r\n    function withdrawAllERC721Assets() external payable onlyBenefactorOrSpender {}\r\n\r\n    function withdrawAllERC1155Assets() external payable onlyBenefactorOrSpender {}\r\n\r\n    function withdrawAllAssets() external payable onlyBenefactorOrSpender {}\r\n\r\n    function getAssetInformation(address addr) external view returns(string memory s, string memory t, uint b, address add){\r\n        assert(isAsset[addr]);\r\n        Asset memory asset = assets[addr];\r\n        s = asset.assetName;\r\n        t = asset.assetType;\r\n        b = asset.assetBalance;\r\n        add = asset.assetAddr;         \r\n    }\r\n\r\n    function getAssetAddresses() external payable returns(address[] memory ){\r\n        address[] memory a = new address[](allAssets.length);\r\n\r\n        for(uint i = 0; i < allAssets.length; i++){\r\n            a[i] = allAssets[i];\r\n        }\r\n\r\n        return a;\r\n    \r\n    }\r\n\r\n    function checkAssetIsInContract(address addr) external view returns(bool){\r\n        return isAsset[addr];\r\n    }\r\n\r\n    function getNumberOfAssets() public view returns(uint n) {\r\n        n = allAssets.length;\r\n    }\r\n\r\n    function getBenefactor() external view returns(address b){\r\n        b = benefactor;\r\n    }\r\n\r\n    function getSpender() external view returns(address s){\r\n        s = spender;\r\n    }\r\n\r\n    function setSpender(address payable s) external onlyBenefactor {\r\n        require(s != address(0), \"invalid address\");\r\n        require(s != benefactor, \"benefactor cannot be spender\");\r\n\r\n        spender = s;\r\n        emit SpenderAddressChanged(spender);\r\n    }\r\n\r\n    function remove(uint i) internal {\r\n        allAssets[i] = allAssets[allAssets.length - 1];\r\n        allAssets.pop();\r\n    }\r\n    \r\n}",
  "sourcePath": "C:\\Users\\user\\Desktop\\vscode\\Trustfund\\contracts\\TrustFund.sol",
  "compiler": {
    "name": "solc",
    "version": "0.8.16+commit.07a7930e.Emscripten.clang"
  },
  "schemaVersion": "3.4.9",
  "updatedAt": "2022-10-07T12:59:55.267Z",
  "devdoc": {
    "kind": "dev",
    "methods": {},
    "version": 1
  },
  "userdoc": {
    "kind": "user",
    "methods": {},
    "version": 1
  }
}