{
  "contractName": "TrustFund",
  "abi": [
    {
      "inputs": [
        {
          "internalType": "address payable",
          "name": "_benefactor",
          "type": "address"
        },
        {
          "internalType": "address payable",
          "name": "_spender",
          "type": "address"
        }
      ],
      "stateMutability": "payable",
      "type": "constructor",
      "payable": true
    },
    {
      "anonymous": false,
      "inputs": [
        {
          "indexed": true,
          "internalType": "uint256",
          "name": "",
          "type": "uint256"
        }
      ],
      "name": "LockDurationSet",
      "type": "event"
    },
    {
      "anonymous": false,
      "inputs": [
        {
          "indexed": true,
          "internalType": "address",
          "name": "",
          "type": "address"
        }
      ],
      "name": "SpenderAddressChanged",
      "type": "event"
    },
    {
      "inputs": [],
      "name": "getBenefactor",
      "outputs": [
        {
          "internalType": "address",
          "name": "b",
          "type": "address"
        }
      ],
      "stateMutability": "view",
      "type": "function",
      "constant": true
    },
    {
      "inputs": [],
      "name": "getSpender",
      "outputs": [
        {
          "internalType": "address",
          "name": "s",
          "type": "address"
        }
      ],
      "stateMutability": "view",
      "type": "function",
      "constant": true
    },
    {
      "inputs": [
        {
          "internalType": "address payable",
          "name": "s",
          "type": "address"
        }
      ],
      "name": "setSpender",
      "outputs": [],
      "stateMutability": "nonpayable",
      "type": "function"
    }
  ],
  "bytecode": "0x608060405260405161042638038061042683398101604081905261002291610132565b60003411610090576040517f08c379a000000000000000000000000000000000000000000000000000000000815260206004820152601460248201527f6465706f73697420696e6974616c2066756e6473000000000000000000000000604482015260640160405180910390fd5b60008054600160a060020a03808516600160a060020a03199283161790925560018054928416929091169190911790556100d16401000000006100d8810204565b50506101a5565b6100e6426301dfe200610165565b60028190556040517fe8a8961cffd8b96789b71b359799d4edbe8389d8982198811e6664a0fb460ff490600090a2565b8051600160a060020a038116811461012d57600080fd5b919050565b6000806040838503121561014557600080fd5b61014e83610116565b915061015c60208401610116565b90509250929050565b8082018082111561019f577f4e487b7100000000000000000000000000000000000000000000000000000000600052601160045260246000fd5b92915050565b610272806101b46000396000f3fe608060405234801561001057600080fd5b506004361061005d577c01000000000000000000000000000000000000000000000000000000006000350463334fc2898114610062578063444392091461008b5780637a9717df146100a0575b600080fd5b600154600160a060020a03165b604051600160a060020a03909116815260200160405180910390f35b61009e61009936600461020c565b6100b1565b005b600054600160a060020a031661006f565b600054600160a060020a031633146100c857600080fd5b600160a060020a03811661013d576040517f08c379a000000000000000000000000000000000000000000000000000000000815260206004820152600f60248201527f696e76616c69642061646472657373000000000000000000000000000000000060448201526064015b60405180910390fd5b600054600160a060020a03908116908216036101b5576040517f08c379a000000000000000000000000000000000000000000000000000000000815260206004820152601c60248201527f62656e65666163746f722063616e6e6f74206265207370656e646572000000006044820152606401610134565b6001805473ffffffffffffffffffffffffffffffffffffffff1916600160a060020a0383169081179091556040517f15e45b303cd0d73f31b30eb738f24928683d770654d4a2bc92564f239c3452dc90600090a250565b60006020828403121561021e57600080fd5b8135600160a060020a038116811461023557600080fd5b939250505056fea2646970667358221220353da6499a569fb775ba7e905a1a7456564f73c48d1d9e621ef488c91b38f1c964736f6c63430008100033",
  "immutableReferences": {},
  "source": "// SPDX-License-Identifier: MIT\r\n\r\npragma solidity >=0.7.0 <0.9.0;\r\n\r\ncontract TrustFund {\r\n\r\n    address payable private benefactor;\r\n    address payable private spender;\r\n    uint256 private lockDuration;\r\n\r\n    event LockDurationSet(uint indexed);\r\n    event SpenderAddressChanged(address indexed);\r\n\r\n    modifier onlyBenefactor() {\r\n        require(msg.sender == benefactor);\r\n        _;\r\n    }\r\n\r\n    constructor(address payable _benefactor, address payable _spender) payable {\r\n        require(msg.value > 0, \"deposit inital funds\");\r\n        benefactor = _benefactor;\r\n        spender = _spender;\r\n        setLockDuration();\r\n    }\r\n\r\n    function setLockDuration() internal {\r\n       lockDuration = block.timestamp +  52 weeks; \r\n       emit LockDurationSet(lockDuration);\r\n    }\r\n\r\n    function getBenefactor() external view returns(address b){\r\n        b = benefactor;\r\n    }\r\n\r\n    function getSpender() external view returns(address s){\r\n        s = spender;\r\n    }\r\n\r\n    function setSpender(address payable s) external onlyBenefactor {\r\n        require(s != address(0), \"invalid address\");\r\n        require(s != benefactor, \"benefactor cannot be spender\");\r\n\r\n        spender = s;\r\n        emit SpenderAddressChanged(spender);\r\n    }\r\n    \r\n}",
  "sourcePath": "C:\\Users\\user\\Desktop\\vscode\\Trustfund\\contracts\\TrustFund.sol",
  "compiler": {
    "name": "solc",
    "version": "0.8.16+commit.07a7930e.Emscripten.clang"
  },
  "schemaVersion": "3.4.9",
  "updatedAt": "2022-09-16T15:26:34.747Z",
  "networkType": "ethereum",
  "devdoc": {
    "kind": "dev",
    "methods": {},
    "version": 1
  },
  "userdoc": {
    "kind": "user",
    "methods": {},
    "version": 1
  }
}